{
  "_format": "hh-sol-artifact-1",
  "contractName": "SkillSwap",
  "sourceName": "contracts/SkillSwap.sol",
  "abi": [
    {
      "inputs": [],
      "stateMutability": "nonpayable",
      "type": "constructor"
    },
    {
      "anonymous": false,
      "inputs": [
        {
          "indexed": true,
          "internalType": "address",
          "name": "owner",
          "type": "address"
        },
        {
          "indexed": true,
          "internalType": "address",
          "name": "approved",
          "type": "address"
        },
        {
          "indexed": true,
          "internalType": "uint256",
          "name": "tokenId",
          "type": "uint256"
        }
      ],
      "name": "Approval",
      "type": "event"
    },
    {
      "anonymous": false,
      "inputs": [
        {
          "indexed": true,
          "internalType": "address",
          "name": "owner",
          "type": "address"
        },
        {
          "indexed": true,
          "internalType": "address",
          "name": "operator",
          "type": "address"
        },
        {
          "indexed": false,
          "internalType": "bool",
          "name": "approved",
          "type": "bool"
        }
      ],
      "name": "ApprovalForAll",
      "type": "event"
    },
    {
      "anonymous": false,
      "inputs": [
        {
          "indexed": true,
          "internalType": "address",
          "name": "user",
          "type": "address"
        },
        {
          "indexed": false,
          "internalType": "uint256",
          "name": "tokenId",
          "type": "uint256"
        },
        {
          "indexed": false,
          "internalType": "string",
          "name": "tokenURI",
          "type": "string"
        }
      ],
      "name": "BadgeMinted",
      "type": "event"
    },
    {
      "anonymous": false,
      "inputs": [
        {
          "indexed": false,
          "internalType": "uint256",
          "name": "_fromTokenId",
          "type": "uint256"
        },
        {
          "indexed": false,
          "internalType": "uint256",
          "name": "_toTokenId",
          "type": "uint256"
        }
      ],
      "name": "BatchMetadataUpdate",
      "type": "event"
    },
    {
      "anonymous": false,
      "inputs": [
        {
          "indexed": false,
          "internalType": "uint256",
          "name": "_tokenId",
          "type": "uint256"
        }
      ],
      "name": "MetadataUpdate",
      "type": "event"
    },
    {
      "anonymous": false,
      "inputs": [
        {
          "indexed": false,
          "internalType": "uint256",
          "name": "offerId",
          "type": "uint256"
        },
        {
          "indexed": true,
          "internalType": "address",
          "name": "provider",
          "type": "address"
        },
        {
          "indexed": true,
          "internalType": "address",
          "name": "receiver",
          "type": "address"
        }
      ],
      "name": "OfferCompleted",
      "type": "event"
    },
    {
      "anonymous": false,
      "inputs": [
        {
          "indexed": true,
          "internalType": "address",
          "name": "previousOwner",
          "type": "address"
        },
        {
          "indexed": true,
          "internalType": "address",
          "name": "newOwner",
          "type": "address"
        }
      ],
      "name": "OwnershipTransferred",
      "type": "event"
    },
    {
      "anonymous": false,
      "inputs": [
        {
          "indexed": true,
          "internalType": "address",
          "name": "reviewer",
          "type": "address"
        },
        {
          "indexed": true,
          "internalType": "address",
          "name": "reviewee",
          "type": "address"
        },
        {
          "indexed": false,
          "internalType": "uint8",
          "name": "rating",
          "type": "uint8"
        },
        {
          "indexed": false,
          "internalType": "string",
          "name": "comment",
          "type": "string"
        }
      ],
      "name": "ReviewSubmitted",
      "type": "event"
    },
    {
      "anonymous": false,
      "inputs": [
        {
          "indexed": false,
          "internalType": "uint256",
          "name": "offerId",
          "type": "uint256"
        },
        {
          "indexed": true,
          "internalType": "address",
          "name": "provider",
          "type": "address"
        },
        {
          "indexed": false,
          "internalType": "string",
          "name": "skillOffered",
          "type": "string"
        },
        {
          "indexed": false,
          "internalType": "string",
          "name": "skillRequested",
          "type": "string"
        }
      ],
      "name": "SkillPosted",
      "type": "event"
    },
    {
      "anonymous": false,
      "inputs": [
        {
          "indexed": true,
          "internalType": "address",
          "name": "from",
          "type": "address"
        },
        {
          "indexed": true,
          "internalType": "address",
          "name": "to",
          "type": "address"
        },
        {
          "indexed": true,
          "internalType": "uint256",
          "name": "tokenId",
          "type": "uint256"
        }
      ],
      "name": "Transfer",
      "type": "event"
    },
    {
      "inputs": [
        {
          "internalType": "address",
          "name": "to",
          "type": "address"
        },
        {
          "internalType": "uint256",
          "name": "tokenId",
          "type": "uint256"
        }
      ],
      "name": "approve",
      "outputs": [],
      "stateMutability": "nonpayable",
      "type": "function"
    },
    {
      "inputs": [
        {
          "internalType": "address",
          "name": "owner",
          "type": "address"
        }
      ],
      "name": "balanceOf",
      "outputs": [
        {
          "internalType": "uint256",
          "name": "",
          "type": "uint256"
        }
      ],
      "stateMutability": "view",
      "type": "function"
    },
    {
      "inputs": [
        {
          "internalType": "uint256",
          "name": "_offerId",
          "type": "uint256"
        }
      ],
      "name": "completeOffer",
      "outputs": [],
      "stateMutability": "nonpayable",
      "type": "function"
    },
    {
      "inputs": [],
      "name": "getActiveOffers",
      "outputs": [
        {
          "components": [
            {
              "internalType": "uint256",
              "name": "id",
              "type": "uint256"
            },
            {
              "internalType": "address",
              "name": "provider",
              "type": "address"
            },
            {
              "internalType": "string",
              "name": "skillOffered",
              "type": "string"
            },
            {
              "internalType": "string",
              "name": "skillRequested",
              "type": "string"
            },
            {
              "internalType": "string",
              "name": "description",
              "type": "string"
            },
            {
              "internalType": "uint256",
              "name": "duration",
              "type": "uint256"
            },
            {
              "internalType": "bool",
              "name": "isActive",
              "type": "bool"
            }
          ],
          "internalType": "struct SkillSwap.Offer[]",
          "name": "",
          "type": "tuple[]"
        }
      ],
      "stateMutability": "view",
      "type": "function"
    },
    {
      "inputs": [
        {
          "internalType": "uint256",
          "name": "tokenId",
          "type": "uint256"
        }
      ],
      "name": "getApproved",
      "outputs": [
        {
          "internalType": "address",
          "name": "",
          "type": "address"
        }
      ],
      "stateMutability": "view",
      "type": "function"
    },
    {
      "inputs": [
        {
          "internalType": "address",
          "name": "_user",
          "type": "address"
        }
      ],
      "name": "getReviews",
      "outputs": [
        {
          "components": [
            {
              "internalType": "address",
              "name": "reviewer",
              "type": "address"
            },
            {
              "internalType": "uint8",
              "name": "rating",
              "type": "uint8"
            },
            {
              "internalType": "string",
              "name": "comment",
              "type": "string"
            }
          ],
          "internalType": "struct SkillSwap.Review[]",
          "name": "",
          "type": "tuple[]"
        }
      ],
      "stateMutability": "view",
      "type": "function"
    },
    {
      "inputs": [
        {
          "internalType": "address",
          "name": "owner",
          "type": "address"
        },
        {
          "internalType": "address",
          "name": "operator",
          "type": "address"
        }
      ],
      "name": "isApprovedForAll",
      "outputs": [
        {
          "internalType": "bool",
          "name": "",
          "type": "bool"
        }
      ],
      "stateMutability": "view",
      "type": "function"
    },
    {
      "inputs": [
        {
          "internalType": "address",
          "name": "_reviewee",
          "type": "address"
        },
        {
          "internalType": "uint8",
          "name": "_rating",
          "type": "uint8"
        },
        {
          "internalType": "string",
          "name": "_comment",
          "type": "string"
        }
      ],
      "name": "leaveReview",
      "outputs": [],
      "stateMutability": "nonpayable",
      "type": "function"
    },
    {
      "inputs": [
        {
          "internalType": "string",
          "name": "tokenURI",
          "type": "string"
        }
      ],
      "name": "mintBadge",
      "outputs": [],
      "stateMutability": "nonpayable",
      "type": "function"
    },
    {
      "inputs": [],
      "name": "name",
      "outputs": [
        {
          "internalType": "string",
          "name": "",
          "type": "string"
        }
      ],
      "stateMutability": "view",
      "type": "function"
    },
    {
      "inputs": [
        {
          "internalType": "uint256",
          "name": "",
          "type": "uint256"
        }
      ],
      "name": "offers",
      "outputs": [
        {
          "internalType": "uint256",
          "name": "id",
          "type": "uint256"
        },
        {
          "internalType": "address",
          "name": "provider",
          "type": "address"
        },
        {
          "internalType": "string",
          "name": "skillOffered",
          "type": "string"
        },
        {
          "internalType": "string",
          "name": "skillRequested",
          "type": "string"
        },
        {
          "internalType": "string",
          "name": "description",
          "type": "string"
        },
        {
          "internalType": "uint256",
          "name": "duration",
          "type": "uint256"
        },
        {
          "internalType": "bool",
          "name": "isActive",
          "type": "bool"
        }
      ],
      "stateMutability": "view",
      "type": "function"
    },
    {
      "inputs": [],
      "name": "owner",
      "outputs": [
        {
          "internalType": "address",
          "name": "",
          "type": "address"
        }
      ],
      "stateMutability": "view",
      "type": "function"
    },
    {
      "inputs": [
        {
          "internalType": "uint256",
          "name": "tokenId",
          "type": "uint256"
        }
      ],
      "name": "ownerOf",
      "outputs": [
        {
          "internalType": "address",
          "name": "",
          "type": "address"
        }
      ],
      "stateMutability": "view",
      "type": "function"
    },
    {
      "inputs": [
        {
          "internalType": "string",
          "name": "_skillOffered",
          "type": "string"
        },
        {
          "internalType": "string",
          "name": "_skillRequested",
          "type": "string"
        },
        {
          "internalType": "string",
          "name": "_description",
          "type": "string"
        },
        {
          "internalType": "uint256",
          "name": "_duration",
          "type": "uint256"
        }
      ],
      "name": "postSkill",
      "outputs": [],
      "stateMutability": "nonpayable",
      "type": "function"
    },
    {
      "inputs": [],
      "name": "renounceOwnership",
      "outputs": [],
      "stateMutability": "nonpayable",
      "type": "function"
    },
    {
      "inputs": [
        {
          "internalType": "address",
          "name": "",
          "type": "address"
        }
      ],
      "name": "reputation",
      "outputs": [
        {
          "internalType": "uint256",
          "name": "",
          "type": "uint256"
        }
      ],
      "stateMutability": "view",
      "type": "function"
    },
    {
      "inputs": [
        {
          "internalType": "address",
          "name": "",
          "type": "address"
        },
        {
          "internalType": "uint256",
          "name": "",
          "type": "uint256"
        }
      ],
      "name": "reviews",
      "outputs": [
        {
          "internalType": "address",
          "name": "reviewer",
          "type": "address"
        },
        {
          "internalType": "uint8",
          "name": "rating",
          "type": "uint8"
        },
        {
          "internalType": "string",
          "name": "comment",
          "type": "string"
        }
      ],
      "stateMutability": "view",
      "type": "function"
    },
    {
      "inputs": [
        {
          "internalType": "address",
          "name": "from",
          "type": "address"
        },
        {
          "internalType": "address",
          "name": "to",
          "type": "address"
        },
        {
          "internalType": "uint256",
          "name": "tokenId",
          "type": "uint256"
        }
      ],
      "name": "safeTransferFrom",
      "outputs": [],
      "stateMutability": "nonpayable",
      "type": "function"
    },
    {
      "inputs": [
        {
          "internalType": "address",
          "name": "from",
          "type": "address"
        },
        {
          "internalType": "address",
          "name": "to",
          "type": "address"
        },
        {
          "internalType": "uint256",
          "name": "tokenId",
          "type": "uint256"
        },
        {
          "internalType": "bytes",
          "name": "data",
          "type": "bytes"
        }
      ],
      "name": "safeTransferFrom",
      "outputs": [],
      "stateMutability": "nonpayable",
      "type": "function"
    },
    {
      "inputs": [
        {
          "internalType": "address",
          "name": "operator",
          "type": "address"
        },
        {
          "internalType": "bool",
          "name": "approved",
          "type": "bool"
        }
      ],
      "name": "setApprovalForAll",
      "outputs": [],
      "stateMutability": "nonpayable",
      "type": "function"
    },
    {
      "inputs": [
        {
          "internalType": "bytes4",
          "name": "interfaceId",
          "type": "bytes4"
        }
      ],
      "name": "supportsInterface",
      "outputs": [
        {
          "internalType": "bool",
          "name": "",
          "type": "bool"
        }
      ],
      "stateMutability": "view",
      "type": "function"
    },
    {
      "inputs": [],
      "name": "symbol",
      "outputs": [
        {
          "internalType": "string",
          "name": "",
          "type": "string"
        }
      ],
      "stateMutability": "view",
      "type": "function"
    },
    {
      "inputs": [
        {
          "internalType": "uint256",
          "name": "tokenId",
          "type": "uint256"
        }
      ],
      "name": "tokenURI",
      "outputs": [
        {
          "internalType": "string",
          "name": "",
          "type": "string"
        }
      ],
      "stateMutability": "view",
      "type": "function"
    },
    {
      "inputs": [
        {
          "internalType": "address",
          "name": "from",
          "type": "address"
        },
        {
          "internalType": "address",
          "name": "to",
          "type": "address"
        },
        {
          "internalType": "uint256",
          "name": "tokenId",
          "type": "uint256"
        }
      ],
      "name": "transferFrom",
      "outputs": [],
      "stateMutability": "nonpayable",
      "type": "function"
    },
    {
      "inputs": [
        {
          "internalType": "address",
          "name": "newOwner",
          "type": "address"
        }
      ],
      "name": "transferOwnership",
      "outputs": [],
      "stateMutability": "nonpayable",
      "type": "function"
    }
  ],
  "bytecode": "0x60806040523480156200001157600080fd5b506040518060400160405280600e81526020017f536b696c6c5377617042616467650000000000000000000000000000000000008152506040518060400160405280600381526020017f535342000000000000000000000000000000000000000000000000000000000081525081600090816200008f919062000412565b508060019081620000a1919062000412565b505050620000c4620000b8620000ca60201b60201c565b620000d260201b60201c565b620004f9565b600033905090565b6000600760009054906101000a900473ffffffffffffffffffffffffffffffffffffffff16905081600760006101000a81548173ffffffffffffffffffffffffffffffffffffffff021916908373ffffffffffffffffffffffffffffffffffffffff1602179055508173ffffffffffffffffffffffffffffffffffffffff168173ffffffffffffffffffffffffffffffffffffffff167f8be0079c531659141344cd1fd0a4f28419497f9722a3daafe3b4186f6b6457e060405160405180910390a35050565b600081519050919050565b7f4e487b7100000000000000000000000000000000000000000000000000000000600052604160045260246000fd5b7f4e487b7100000000000000000000000000000000000000000000000000000000600052602260045260246000fd5b600060028204905060018216806200021a57607f821691505b60208210810362000230576200022f620001d2565b5b50919050565b60008190508160005260206000209050919050565b60006020601f8301049050919050565b600082821b905092915050565b6000600883026200029a7fffffffffffffffffffffffffffffffffffffffffffffffffffffffffffffffff826200025b565b620002a686836200025b565b95508019841693508086168417925050509392505050565b6000819050919050565b6000819050919050565b6000620002f3620002ed620002e784620002be565b620002c8565b620002be565b9050919050565b6000819050919050565b6200030f83620002d2565b620003276200031e82620002fa565b84845462000268565b825550505050565b600090565b6200033e6200032f565b6200034b81848462000304565b505050565b5b8181101562000373576200036760008262000334565b60018101905062000351565b5050565b601f821115620003c2576200038c8162000236565b62000397846200024b565b81016020851015620003a7578190505b620003bf620003b6856200024b565b83018262000350565b50505b505050565b600082821c905092915050565b6000620003e760001984600802620003c7565b1980831691505092915050565b6000620004028383620003d4565b9150826002028217905092915050565b6200041d8262000198565b67ffffffffffffffff811115620004395762000438620001a3565b5b62000445825462000201565b6200045282828562000377565b600060209050601f8311600181146200048a576000841562000475578287015190505b620004818582620003f4565b865550620004f1565b601f1984166200049a8662000236565b60005b82811015620004c4578489015182556001820191506020850194506020810190506200049d565b86831015620004e45784890151620004e0601f891682620003d4565b8355505b6001600288020188555050505b505050505050565b614af680620005096000396000f3fe608060405234801561001057600080fd5b50600436106101735760003560e01c80637ff118ef116100de578063b88d4fde11610097578063d7875f8c11610071578063d7875f8c14610476578063e985e9c514610492578063f2fde38b146104c2578063fdbff7c8146104de57610173565b8063b88d4fde146103fa578063b9f7945114610416578063c87b56dd1461044657610173565b80637ff118ef146103325780638a72ea6a146103505780638da5cb5b1461038657806395d89b41146103a45780639e03674b146103c2578063a22cb465146103de57610173565b806342842e0e1161013057806342842e0e1461024a5780634ef5a017146102665780636352211e146102965780636db3328f146102c657806370a08231146102f8578063715018a61461032857610173565b806301ffc9a71461017857806306fdde03146101a8578063081812fc146101c6578063095ea7b3146101f65780631fe91b391461021257806323b872dd1461022e575b600080fd5b610192600480360381019061018d9190612e89565b6104fa565b60405161019f9190612ed1565b60405180910390f35b6101b061055b565b6040516101bd9190612f7c565b60405180910390f35b6101e060048036038101906101db9190612fd4565b6105ed565b6040516101ed9190613042565b60405180910390f35b610210600480360381019061020b9190613089565b610633565b005b61022c600480360381019061022791906131fe565b61074a565b005b61024860048036038101906102439190613247565b610850565b005b610264600480360381019061025f9190613247565b6108b0565b005b610280600480360381019061027b919061329a565b6108d0565b60405161028d919061344e565b60405180910390f35b6102b060048036038101906102ab9190612fd4565b610a73565b6040516102bd9190613042565b60405180910390f35b6102e060048036038101906102db9190613089565b610af9565b6040516102ef9392919061347f565b60405180910390f35b610312600480360381019061030d919061329a565b610bf5565b60405161031f91906134cc565b60405180910390f35b610330610cac565b005b61033a610cc0565b6040516103479190613671565b60405180910390f35b61036a60048036038101906103659190612fd4565b61104e565b60405161037d9796959493929190613693565b60405180910390f35b61038e611255565b60405161039b9190613042565b60405180910390f35b6103ac61127f565b6040516103b99190612f7c565b60405180910390f35b6103dc60048036038101906103d79190613717565b611311565b005b6103f860048036038101906103f391906137fe565b61152c565b005b610414600480360381019061040f91906138df565b611542565b005b610430600480360381019061042b919061329a565b6115a4565b60405161043d91906134cc565b60405180910390f35b610460600480360381019061045b9190612fd4565b6115bc565b60405161046d9190612f7c565b60405180910390f35b610490600480360381019061048b91906139ee565b6116ce565b005b6104ac60048036038101906104a79190613a62565b611a0b565b6040516104b99190612ed1565b60405180910390f35b6104dc60048036038101906104d7919061329a565b611a9f565b005b6104f860048036038101906104f39190612fd4565b611b22565b005b6000634906490660e01b7bffffffffffffffffffffffffffffffffffffffffffffffffffffffff1916827bffffffffffffffffffffffffffffffffffffffffffffffffffffffff19161480610554575061055382611d41565b5b9050919050565b60606000805461056a90613ad1565b80601f016020809104026020016040519081016040528092919081815260200182805461059690613ad1565b80156105e35780601f106105b8576101008083540402835291602001916105e3565b820191906000526020600020905b8154815290600101906020018083116105c657829003601f168201915b5050505050905090565b60006105f882611e23565b6004600083815260200190815260200160002060009054906101000a900473ffffffffffffffffffffffffffffffffffffffff169050919050565b600061063e82610a73565b90508073ffffffffffffffffffffffffffffffffffffffff168373ffffffffffffffffffffffffffffffffffffffff16036106ae576040517f08c379a00000000000000000000000000000000000000000000000000000000081526004016106a590613b74565b60405180910390fd5b8073ffffffffffffffffffffffffffffffffffffffff166106cd611e6e565b73ffffffffffffffffffffffffffffffffffffffff1614806106fc57506106fb816106f6611e6e565b611a0b565b5b61073b576040517f08c379a000000000000000000000000000000000000000000000000000000000815260040161073290613c06565b60405180910390fd5b6107458383611e76565b505050565b6032600b60003373ffffffffffffffffffffffffffffffffffffffff1673ffffffffffffffffffffffffffffffffffffffff1681526020019081526020016000205410156107cd576040517f08c379a00000000000000000000000000000000000000000000000000000000081526004016107c490613c72565b60405180910390fd5b6000600860008154809291906107e290613cc1565b9190505590506107f23382611f2f565b6107fc818361214c565b3373ffffffffffffffffffffffffffffffffffffffff167f6854c057dc92416510857b3daad5434a4202a4d192cf0f85d496d91974efaea38284604051610844929190613d09565b60405180910390a25050565b61086161085b611e6e565b826121f0565b6108a0576040517f08c379a000000000000000000000000000000000000000000000000000000000815260040161089790613dab565b60405180910390fd5b6108ab838383612285565b505050565b6108cb83838360405180602001604052806000815250611542565b505050565b6060600c60008373ffffffffffffffffffffffffffffffffffffffff1673ffffffffffffffffffffffffffffffffffffffff168152602001908152602001600020805480602002602001604051908101604052809291908181526020016000905b82821015610a6857838290600052602060002090600202016040518060600160405290816000820160009054906101000a900473ffffffffffffffffffffffffffffffffffffffff1673ffffffffffffffffffffffffffffffffffffffff1673ffffffffffffffffffffffffffffffffffffffff1681526020016000820160149054906101000a900460ff1660ff1660ff1681526020016001820180546109d790613ad1565b80601f0160208091040260200160405190810160405280929190818152602001828054610a0390613ad1565b8015610a505780601f10610a2557610100808354040283529160200191610a50565b820191906000526020600020905b815481529060010190602001808311610a3357829003601f168201915b50505050508152505081526020019060010190610931565b505050509050919050565b600080610a7f8361257e565b9050600073ffffffffffffffffffffffffffffffffffffffff168173ffffffffffffffffffffffffffffffffffffffff1603610af0576040517f08c379a0000000000000000000000000000000000000000000000000000000008152600401610ae790613e17565b60405180910390fd5b80915050919050565b600c6020528160005260406000208181548110610b1557600080fd5b9060005260206000209060020201600091509150508060000160009054906101000a900473ffffffffffffffffffffffffffffffffffffffff16908060000160149054906101000a900460ff1690806001018054610b7290613ad1565b80601f0160208091040260200160405190810160405280929190818152602001828054610b9e90613ad1565b8015610beb5780601f10610bc057610100808354040283529160200191610beb565b820191906000526020600020905b815481529060010190602001808311610bce57829003601f168201915b5050505050905083565b60008073ffffffffffffffffffffffffffffffffffffffff168273ffffffffffffffffffffffffffffffffffffffff1603610c65576040517f08c379a0000000000000000000000000000000000000000000000000000000008152600401610c5c90613ea9565b60405180910390fd5b600360008373ffffffffffffffffffffffffffffffffffffffff1673ffffffffffffffffffffffffffffffffffffffff168152602001908152602001600020549050919050565b610cb46125bb565b610cbe6000612639565b565b60606000805b600954811015610d1b57600a600082815260200190815260200160002060060160009054906101000a900460ff1615610d08578180610d0490613cc1565b9250505b8080610d1390613cc1565b915050610cc6565b5060008167ffffffffffffffff811115610d3857610d376130d3565b5b604051908082528060200260200182016040528015610d7157816020015b610d5e612dc8565b815260200190600190039081610d565790505b5090506000805b60095481101561104457600a600082815260200190815260200160002060060160009054906101000a900460ff161561103157600a60008281526020019081526020016000206040518060e0016040529081600082015481526020016001820160009054906101000a900473ffffffffffffffffffffffffffffffffffffffff1673ffffffffffffffffffffffffffffffffffffffff1673ffffffffffffffffffffffffffffffffffffffff168152602001600282018054610e3990613ad1565b80601f0160208091040260200160405190810160405280929190818152602001828054610e6590613ad1565b8015610eb25780601f10610e8757610100808354040283529160200191610eb2565b820191906000526020600020905b815481529060010190602001808311610e9557829003601f168201915b50505050508152602001600382018054610ecb90613ad1565b80601f0160208091040260200160405190810160405280929190818152602001828054610ef790613ad1565b8015610f445780601f10610f1957610100808354040283529160200191610f44565b820191906000526020600020905b815481529060010190602001808311610f2757829003601f168201915b50505050508152602001600482018054610f5d90613ad1565b80601f0160208091040260200160405190810160405280929190818152602001828054610f8990613ad1565b8015610fd65780601f10610fab57610100808354040283529160200191610fd6565b820191906000526020600020905b815481529060010190602001808311610fb957829003601f168201915b50505050508152602001600582015481526020016006820160009054906101000a900460ff16151515158152505083838151811061101757611016613ec9565b5b6020026020010181905250818061102d90613cc1565b9250505b808061103c90613cc1565b915050610d78565b5081935050505090565b600a6020528060005260406000206000915090508060000154908060010160009054906101000a900473ffffffffffffffffffffffffffffffffffffffff169080600201805461109d90613ad1565b80601f01602080910402602001604051908101604052809291908181526020018280546110c990613ad1565b80156111165780601f106110eb57610100808354040283529160200191611116565b820191906000526020600020905b8154815290600101906020018083116110f957829003601f168201915b50505050509080600301805461112b90613ad1565b80601f016020809104026020016040519081016040528092919081815260200182805461115790613ad1565b80156111a45780601f10611179576101008083540402835291602001916111a4565b820191906000526020600020905b81548152906001019060200180831161118757829003601f168201915b5050505050908060040180546111b990613ad1565b80601f01602080910402602001604051908101604052809291908181526020018280546111e590613ad1565b80156112325780601f1061120757610100808354040283529160200191611232565b820191906000526020600020905b81548152906001019060200180831161121557829003601f168201915b5050505050908060050154908060060160009054906101000a900460ff16905087565b6000600760009054906101000a900473ffffffffffffffffffffffffffffffffffffffff16905090565b60606001805461128e90613ad1565b80601f01602080910402602001604051908101604052809291908181526020018280546112ba90613ad1565b80156113075780601f106112dc57610100808354040283529160200191611307565b820191906000526020600020905b8154815290600101906020018083116112ea57829003601f168201915b5050505050905090565b6000845111611355576040517f08c379a000000000000000000000000000000000000000000000000000000000815260040161134c90613f44565b60405180910390fd5b6000835111611399576040517f08c379a000000000000000000000000000000000000000000000000000000000815260040161139090613fb0565b60405180910390fd5b6000600960008154809291906113ae90613cc1565b9190505590506040518060e001604052808281526020013373ffffffffffffffffffffffffffffffffffffffff16815260200186815260200185815260200184815260200183815260200160011515815250600a60008381526020019081526020016000206000820151816000015560208201518160010160006101000a81548173ffffffffffffffffffffffffffffffffffffffff021916908373ffffffffffffffffffffffffffffffffffffffff1602179055506040820151816002019081611479919061417c565b50606082015181600301908161148f919061417c565b5060808201518160040190816114a5919061417c565b5060a0820151816005015560c08201518160060160006101000a81548160ff0219169083151502179055509050503373ffffffffffffffffffffffffffffffffffffffff167face90ecc8473faefc8a3dadff79f548b5e87d99a3d9b177219c45838312ecdcb82878760405161151d9392919061424e565b60405180910390a25050505050565b61153e611537611e6e565b83836126ff565b5050565b61155361154d611e6e565b836121f0565b611592576040517f08c379a000000000000000000000000000000000000000000000000000000000815260040161158990613dab565b60405180910390fd5b61159e8484848461286b565b50505050565b600b6020528060005260406000206000915090505481565b60606115c782611e23565b60006006600084815260200190815260200160002080546115e790613ad1565b80601f016020809104026020016040519081016040528092919081815260200182805461161390613ad1565b80156116605780601f1061163557610100808354040283529160200191611660565b820191906000526020600020905b81548152906001019060200180831161164357829003601f168201915b5050505050905060006116716128c7565b905060008151036116865781925050506116c9565b6000825111156116bb5780826040516020016116a39291906142cf565b604051602081830303815290604052925050506116c9565b6116c4846128de565b925050505b919050565b60018360ff16101580156116e6575060058360ff1611155b611725576040517f08c379a000000000000000000000000000000000000000000000000000000000815260040161171c9061433f565b60405180910390fd5b600c60008573ffffffffffffffffffffffffffffffffffffffff1673ffffffffffffffffffffffffffffffffffffffff16815260200190815260200160002060405180606001604052803373ffffffffffffffffffffffffffffffffffffffff1681526020018560ff16815260200184848080601f016020809104026020016040519081016040528093929190818152602001838380828437600081840152601f19601f82011690508083019250505050505050815250908060018154018082558091505060019003906000526020600020906002020160009091909190915060008201518160000160006101000a81548173ffffffffffffffffffffffffffffffffffffffff021916908373ffffffffffffffffffffffffffffffffffffffff16021790555060208201518160000160146101000a81548160ff021916908360ff1602179055506040820151816001019081611882919061417c565b50505060048360ff16106118ec576005600b60008673ffffffffffffffffffffffffffffffffffffffff1673ffffffffffffffffffffffffffffffffffffffff16815260200190815260200160002060008282546118e0919061435f565b9250508190555061199c565b60018360ff1614801561193e57506000600b60008673ffffffffffffffffffffffffffffffffffffffff1673ffffffffffffffffffffffffffffffffffffffff16815260200190815260200160002054115b1561199b576002600b60008673ffffffffffffffffffffffffffffffffffffffff1673ffffffffffffffffffffffffffffffffffffffff16815260200190815260200160002060008282546119939190614393565b925050819055505b5b8373ffffffffffffffffffffffffffffffffffffffff163373ffffffffffffffffffffffffffffffffffffffff167f1e4cf30e4ea368a311e94a099f8b4933dfee9531a6049afef3686a0a34d3c1ae8585856040516119fd939291906143f4565b60405180910390a350505050565b6000600560008473ffffffffffffffffffffffffffffffffffffffff1673ffffffffffffffffffffffffffffffffffffffff16815260200190815260200160002060008373ffffffffffffffffffffffffffffffffffffffff1673ffffffffffffffffffffffffffffffffffffffff16815260200190815260200160002060009054906101000a900460ff16905092915050565b611aa76125bb565b600073ffffffffffffffffffffffffffffffffffffffff168173ffffffffffffffffffffffffffffffffffffffff1603611b16576040517f08c379a0000000000000000000000000000000000000000000000000000000008152600401611b0d90614498565b60405180910390fd5b611b1f81612639565b50565b6000600a600083815260200190815260200160002090508060060160009054906101000a900460ff16611b8a576040517f08c379a0000000000000000000000000000000000000000000000000000000008152600401611b8190614504565b60405180910390fd5b8060010160009054906101000a900473ffffffffffffffffffffffffffffffffffffffff1673ffffffffffffffffffffffffffffffffffffffff163373ffffffffffffffffffffffffffffffffffffffff1603611c1c576040517f08c379a0000000000000000000000000000000000000000000000000000000008152600401611c1390614596565b60405180910390fd5b60008160060160006101000a81548160ff021916908315150217905550600a600b60008360010160009054906101000a900473ffffffffffffffffffffffffffffffffffffffff1673ffffffffffffffffffffffffffffffffffffffff1673ffffffffffffffffffffffffffffffffffffffff1681526020019081526020016000206000828254611cad919061435f565b925050819055503373ffffffffffffffffffffffffffffffffffffffff168160010160009054906101000a900473ffffffffffffffffffffffffffffffffffffffff1673ffffffffffffffffffffffffffffffffffffffff167fd1772cfa53e6f771922db778536d7af446b9748f09f661e842203202ccc3c9cf84604051611d3591906134cc565b60405180910390a35050565b60007f80ac58cd000000000000000000000000000000000000000000000000000000007bffffffffffffffffffffffffffffffffffffffffffffffffffffffff1916827bffffffffffffffffffffffffffffffffffffffffffffffffffffffff19161480611e0c57507f5b5e139f000000000000000000000000000000000000000000000000000000007bffffffffffffffffffffffffffffffffffffffffffffffffffffffff1916827bffffffffffffffffffffffffffffffffffffffffffffffffffffffff1916145b80611e1c5750611e1b82612946565b5b9050919050565b611e2c816129b0565b611e6b576040517f08c379a0000000000000000000000000000000000000000000000000000000008152600401611e6290613e17565b60405180910390fd5b50565b600033905090565b816004600083815260200190815260200160002060006101000a81548173ffffffffffffffffffffffffffffffffffffffff021916908373ffffffffffffffffffffffffffffffffffffffff160217905550808273ffffffffffffffffffffffffffffffffffffffff16611ee983610a73565b73ffffffffffffffffffffffffffffffffffffffff167f8c5be1e5ebec7d5bd14f71427d1e84f3dd0314c0f7b2291e5b200ac8c7c3b92560405160405180910390a45050565b600073ffffffffffffffffffffffffffffffffffffffff168273ffffffffffffffffffffffffffffffffffffffff1603611f9e576040517f08c379a0000000000000000000000000000000000000000000000000000000008152600401611f9590614602565b60405180910390fd5b611fa7816129b0565b15611fe7576040517f08c379a0000000000000000000000000000000000000000000000000000000008152600401611fde9061466e565b60405180910390fd5b611ff56000838360016129f1565b611ffe816129b0565b1561203e576040517f08c379a00000000000000000000000000000000000000000000000000000000081526004016120359061466e565b60405180910390fd5b6001600360008473ffffffffffffffffffffffffffffffffffffffff1673ffffffffffffffffffffffffffffffffffffffff16815260200190815260200160002060008282540192505081905550816002600083815260200190815260200160002060006101000a81548173ffffffffffffffffffffffffffffffffffffffff021916908373ffffffffffffffffffffffffffffffffffffffff160217905550808273ffffffffffffffffffffffffffffffffffffffff16600073ffffffffffffffffffffffffffffffffffffffff167fddf252ad1be2c89b69c2b068fc378daa952ba7f163c4a11628f55a4df523b3ef60405160405180910390a46121486000838360016129f7565b5050565b612155826129b0565b612194576040517f08c379a000000000000000000000000000000000000000000000000000000000815260040161218b90614700565b60405180910390fd5b806006600084815260200190815260200160002090816121b4919061417c565b507ff8e1a15aba9398e019f0b49df1a4fde98ee17ae345cb5f6b5e2c27f5033e8ce7826040516121e491906134cc565b60405180910390a15050565b6000806121fc83610a73565b90508073ffffffffffffffffffffffffffffffffffffffff168473ffffffffffffffffffffffffffffffffffffffff16148061223e575061223d8185611a0b565b5b8061227c57508373ffffffffffffffffffffffffffffffffffffffff16612264846105ed565b73ffffffffffffffffffffffffffffffffffffffff16145b91505092915050565b8273ffffffffffffffffffffffffffffffffffffffff166122a582610a73565b73ffffffffffffffffffffffffffffffffffffffff16146122fb576040517f08c379a00000000000000000000000000000000000000000000000000000000081526004016122f290614792565b60405180910390fd5b600073ffffffffffffffffffffffffffffffffffffffff168273ffffffffffffffffffffffffffffffffffffffff160361236a576040517f08c379a000000000000000000000000000000000000000000000000000000000815260040161236190614824565b60405180910390fd5b61237783838360016129f1565b8273ffffffffffffffffffffffffffffffffffffffff1661239782610a73565b73ffffffffffffffffffffffffffffffffffffffff16146123ed576040517f08c379a00000000000000000000000000000000000000000000000000000000081526004016123e490614792565b60405180910390fd5b6004600082815260200190815260200160002060006101000a81549073ffffffffffffffffffffffffffffffffffffffff02191690556001600360008573ffffffffffffffffffffffffffffffffffffffff1673ffffffffffffffffffffffffffffffffffffffff168152602001908152602001600020600082825403925050819055506001600360008473ffffffffffffffffffffffffffffffffffffffff1673ffffffffffffffffffffffffffffffffffffffff16815260200190815260200160002060008282540192505081905550816002600083815260200190815260200160002060006101000a81548173ffffffffffffffffffffffffffffffffffffffff021916908373ffffffffffffffffffffffffffffffffffffffff160217905550808273ffffffffffffffffffffffffffffffffffffffff168473ffffffffffffffffffffffffffffffffffffffff167fddf252ad1be2c89b69c2b068fc378daa952ba7f163c4a11628f55a4df523b3ef60405160405180910390a461257983838360016129f7565b505050565b60006002600083815260200190815260200160002060009054906101000a900473ffffffffffffffffffffffffffffffffffffffff169050919050565b6125c3611e6e565b73ffffffffffffffffffffffffffffffffffffffff166125e1611255565b73ffffffffffffffffffffffffffffffffffffffff1614612637576040517f08c379a000000000000000000000000000000000000000000000000000000000815260040161262e90614890565b60405180910390fd5b565b6000600760009054906101000a900473ffffffffffffffffffffffffffffffffffffffff16905081600760006101000a81548173ffffffffffffffffffffffffffffffffffffffff021916908373ffffffffffffffffffffffffffffffffffffffff1602179055508173ffffffffffffffffffffffffffffffffffffffff168173ffffffffffffffffffffffffffffffffffffffff167f8be0079c531659141344cd1fd0a4f28419497f9722a3daafe3b4186f6b6457e060405160405180910390a35050565b8173ffffffffffffffffffffffffffffffffffffffff168373ffffffffffffffffffffffffffffffffffffffff160361276d576040517f08c379a0000000000000000000000000000000000000000000000000000000008152600401612764906148fc565b60405180910390fd5b80600560008573ffffffffffffffffffffffffffffffffffffffff1673ffffffffffffffffffffffffffffffffffffffff16815260200190815260200160002060008473ffffffffffffffffffffffffffffffffffffffff1673ffffffffffffffffffffffffffffffffffffffff16815260200190815260200160002060006101000a81548160ff0219169083151502179055508173ffffffffffffffffffffffffffffffffffffffff168373ffffffffffffffffffffffffffffffffffffffff167f17307eab39ab6107e8899845ad3d59bd9653f200f220920489ca2b5937696c318360405161285e9190612ed1565b60405180910390a3505050565b612876848484612285565b612882848484846129fd565b6128c1576040517f08c379a00000000000000000000000000000000000000000000000000000000081526004016128b89061498e565b60405180910390fd5b50505050565b606060405180602001604052806000815250905090565b60606128e982611e23565b60006128f36128c7565b90506000815111612913576040518060200160405280600081525061293e565b8061291d84612b84565b60405160200161292e9291906142cf565b6040516020818303038152906040525b915050919050565b60007f01ffc9a7000000000000000000000000000000000000000000000000000000007bffffffffffffffffffffffffffffffffffffffffffffffffffffffff1916827bffffffffffffffffffffffffffffffffffffffffffffffffffffffff1916149050919050565b60008073ffffffffffffffffffffffffffffffffffffffff166129d28361257e565b73ffffffffffffffffffffffffffffffffffffffff1614159050919050565b50505050565b50505050565b6000612a1e8473ffffffffffffffffffffffffffffffffffffffff16612c52565b15612b77578373ffffffffffffffffffffffffffffffffffffffff1663150b7a02612a47611e6e565b8786866040518563ffffffff1660e01b8152600401612a699493929190614a03565b6020604051808303816000875af1925050508015612aa557506040513d601f19601f82011682018060405250810190612aa29190614a64565b60015b612b27573d8060008114612ad5576040519150601f19603f3d011682016040523d82523d6000602084013e612ada565b606091505b506000815103612b1f576040517f08c379a0000000000000000000000000000000000000000000000000000000008152600401612b169061498e565b60405180910390fd5b805181602001fd5b63150b7a0260e01b7bffffffffffffffffffffffffffffffffffffffffffffffffffffffff1916817bffffffffffffffffffffffffffffffffffffffffffffffffffffffff191614915050612b7c565b600190505b949350505050565b606060006001612b9384612c75565b01905060008167ffffffffffffffff811115612bb257612bb16130d3565b5b6040519080825280601f01601f191660200182016040528015612be45781602001600182028036833780820191505090505b509050600082602001820190505b600115612c47578080600190039150507f3031323334353637383961626364656600000000000000000000000000000000600a86061a8153600a8581612c3b57612c3a614a91565b5b04945060008503612bf2575b819350505050919050565b6000808273ffffffffffffffffffffffffffffffffffffffff163b119050919050565b600080600090507a184f03e93ff9f4daa797ed6e38ed64bf6a1f0100000000000000008310612cd3577a184f03e93ff9f4daa797ed6e38ed64bf6a1f0100000000000000008381612cc957612cc8614a91565b5b0492506040810190505b6d04ee2d6d415b85acef81000000008310612d10576d04ee2d6d415b85acef81000000008381612d0657612d05614a91565b5b0492506020810190505b662386f26fc100008310612d3f57662386f26fc100008381612d3557612d34614a91565b5b0492506010810190505b6305f5e1008310612d68576305f5e1008381612d5e57612d5d614a91565b5b0492506008810190505b6127108310612d8d576127108381612d8357612d82614a91565b5b0492506004810190505b60648310612db05760648381612da657612da5614a91565b5b0492506002810190505b600a8310612dbf576001810190505b80915050919050565b6040518060e0016040528060008152602001600073ffffffffffffffffffffffffffffffffffffffff168152602001606081526020016060815260200160608152602001600081526020016000151581525090565b6000604051905090565b600080fd5b600080fd5b60007fffffffff0000000000000000000000000000000000000000000000000000000082169050919050565b612e6681612e31565b8114612e7157600080fd5b50565b600081359050612e8381612e5d565b92915050565b600060208284031215612e9f57612e9e612e27565b5b6000612ead84828501612e74565b91505092915050565b60008115159050919050565b612ecb81612eb6565b82525050565b6000602082019050612ee66000830184612ec2565b92915050565b600081519050919050565b600082825260208201905092915050565b60005b83811015612f26578082015181840152602081019050612f0b565b60008484015250505050565b6000601f19601f8301169050919050565b6000612f4e82612eec565b612f588185612ef7565b9350612f68818560208601612f08565b612f7181612f32565b840191505092915050565b60006020820190508181036000830152612f968184612f43565b905092915050565b6000819050919050565b612fb181612f9e565b8114612fbc57600080fd5b50565b600081359050612fce81612fa8565b92915050565b600060208284031215612fea57612fe9612e27565b5b6000612ff884828501612fbf565b91505092915050565b600073ffffffffffffffffffffffffffffffffffffffff82169050919050565b600061302c82613001565b9050919050565b61303c81613021565b82525050565b60006020820190506130576000830184613033565b92915050565b61306681613021565b811461307157600080fd5b50565b6000813590506130838161305d565b92915050565b600080604083850312156130a05761309f612e27565b5b60006130ae85828601613074565b92505060206130bf85828601612fbf565b9150509250929050565b600080fd5b600080fd5b7f4e487b7100000000000000000000000000000000000000000000000000000000600052604160045260246000fd5b61310b82612f32565b810181811067ffffffffffffffff8211171561312a576131296130d3565b5b80604052505050565b600061313d612e1d565b90506131498282613102565b919050565b600067ffffffffffffffff821115613169576131686130d3565b5b61317282612f32565b9050602081019050919050565b82818337600083830152505050565b60006131a161319c8461314e565b613133565b9050828152602081018484840111156131bd576131bc6130ce565b5b6131c884828561317f565b509392505050565b600082601f8301126131e5576131e46130c9565b5b81356131f584826020860161318e565b91505092915050565b60006020828403121561321457613213612e27565b5b600082013567ffffffffffffffff81111561323257613231612e2c565b5b61323e848285016131d0565b91505092915050565b6000806000606084860312156132605761325f612e27565b5b600061326e86828701613074565b935050602061327f86828701613074565b925050604061329086828701612fbf565b9150509250925092565b6000602082840312156132b0576132af612e27565b5b60006132be84828501613074565b91505092915050565b600081519050919050565b600082825260208201905092915050565b6000819050602082019050919050565b6132fc81613021565b82525050565b600060ff82169050919050565b61331881613302565b82525050565b600082825260208201905092915050565b600061333a82612eec565b613344818561331e565b9350613354818560208601612f08565b61335d81612f32565b840191505092915050565b600060608301600083015161338060008601826132f3565b506020830151613393602086018261330f565b50604083015184820360408601526133ab828261332f565b9150508091505092915050565b60006133c48383613368565b905092915050565b6000602082019050919050565b60006133e4826132c7565b6133ee81856132d2565b935083602082028501613400856132e3565b8060005b8581101561343c578484038952815161341d85826133b8565b9450613428836133cc565b925060208a01995050600181019050613404565b50829750879550505050505092915050565b6000602082019050818103600083015261346881846133d9565b905092915050565b61347981613302565b82525050565b60006060820190506134946000830186613033565b6134a16020830185613470565b81810360408301526134b38184612f43565b9050949350505050565b6134c681612f9e565b82525050565b60006020820190506134e160008301846134bd565b92915050565b600081519050919050565b600082825260208201905092915050565b6000819050602082019050919050565b61351c81612f9e565b82525050565b61352b81612eb6565b82525050565b600060e0830160008301516135496000860182613513565b50602083015161355c60208601826132f3565b5060408301518482036040860152613574828261332f565b9150506060830151848203606086015261358e828261332f565b915050608083015184820360808601526135a8828261332f565b91505060a08301516135bd60a0860182613513565b5060c08301516135d060c0860182613522565b508091505092915050565b60006135e78383613531565b905092915050565b6000602082019050919050565b6000613607826134e7565b61361181856134f2565b93508360208202850161362385613503565b8060005b8581101561365f578484038952815161364085826135db565b945061364b836135ef565b925060208a01995050600181019050613627565b50829750879550505050505092915050565b6000602082019050818103600083015261368b81846135fc565b905092915050565b600060e0820190506136a8600083018a6134bd565b6136b56020830189613033565b81810360408301526136c78188612f43565b905081810360608301526136db8187612f43565b905081810360808301526136ef8186612f43565b90506136fe60a08301856134bd565b61370b60c0830184612ec2565b98975050505050505050565b6000806000806080858703121561373157613730612e27565b5b600085013567ffffffffffffffff81111561374f5761374e612e2c565b5b61375b878288016131d0565b945050602085013567ffffffffffffffff81111561377c5761377b612e2c565b5b613788878288016131d0565b935050604085013567ffffffffffffffff8111156137a9576137a8612e2c565b5b6137b5878288016131d0565b92505060606137c687828801612fbf565b91505092959194509250565b6137db81612eb6565b81146137e657600080fd5b50565b6000813590506137f8816137d2565b92915050565b6000806040838503121561381557613814612e27565b5b600061382385828601613074565b9250506020613834858286016137e9565b9150509250929050565b600067ffffffffffffffff821115613859576138586130d3565b5b61386282612f32565b9050602081019050919050565b600061388261387d8461383e565b613133565b90508281526020810184848401111561389e5761389d6130ce565b5b6138a984828561317f565b509392505050565b600082601f8301126138c6576138c56130c9565b5b81356138d684826020860161386f565b91505092915050565b600080600080608085870312156138f9576138f8612e27565b5b600061390787828801613074565b945050602061391887828801613074565b935050604061392987828801612fbf565b925050606085013567ffffffffffffffff81111561394a57613949612e2c565b5b613956878288016138b1565b91505092959194509250565b61396b81613302565b811461397657600080fd5b50565b60008135905061398881613962565b92915050565b600080fd5b600080fd5b60008083601f8401126139ae576139ad6130c9565b5b8235905067ffffffffffffffff8111156139cb576139ca61398e565b5b6020830191508360018202830111156139e7576139e6613993565b5b9250929050565b60008060008060608587031215613a0857613a07612e27565b5b6000613a1687828801613074565b9450506020613a2787828801613979565b935050604085013567ffffffffffffffff811115613a4857613a47612e2c565b5b613a5487828801613998565b925092505092959194509250565b60008060408385031215613a7957613a78612e27565b5b6000613a8785828601613074565b9250506020613a9885828601613074565b9150509250929050565b7f4e487b7100000000000000000000000000000000000000000000000000000000600052602260045260246000fd5b60006002820490506001821680613ae957607f821691505b602082108103613afc57613afb613aa2565b5b50919050565b7f4552433732313a20617070726f76616c20746f2063757272656e74206f776e6560008201527f7200000000000000000000000000000000000000000000000000000000000000602082015250565b6000613b5e602183612ef7565b9150613b6982613b02565b604082019050919050565b60006020820190508181036000830152613b8d81613b51565b9050919050565b7f4552433732313a20617070726f76652063616c6c6572206973206e6f7420746f60008201527f6b656e206f776e6572206f7220617070726f76656420666f7220616c6c000000602082015250565b6000613bf0603d83612ef7565b9150613bfb82613b94565b604082019050919050565b60006020820190508181036000830152613c1f81613be3565b9050919050565b7f4e6f7420656e6f7567682072657075746174696f6e0000000000000000000000600082015250565b6000613c5c601583612ef7565b9150613c6782613c26565b602082019050919050565b60006020820190508181036000830152613c8b81613c4f565b9050919050565b7f4e487b7100000000000000000000000000000000000000000000000000000000600052601160045260246000fd5b6000613ccc82612f9e565b91507fffffffffffffffffffffffffffffffffffffffffffffffffffffffffffffffff8203613cfe57613cfd613c92565b5b600182019050919050565b6000604082019050613d1e60008301856134bd565b8181036020830152613d308184612f43565b90509392505050565b7f4552433732313a2063616c6c6572206973206e6f7420746f6b656e206f776e6560008201527f72206f7220617070726f76656400000000000000000000000000000000000000602082015250565b6000613d95602d83612ef7565b9150613da082613d39565b604082019050919050565b60006020820190508181036000830152613dc481613d88565b9050919050565b7f4552433732313a20696e76616c696420746f6b656e2049440000000000000000600082015250565b6000613e01601883612ef7565b9150613e0c82613dcb565b602082019050919050565b60006020820190508181036000830152613e3081613df4565b9050919050565b7f4552433732313a2061646472657373207a65726f206973206e6f74206120766160008201527f6c6964206f776e65720000000000000000000000000000000000000000000000602082015250565b6000613e93602983612ef7565b9150613e9e82613e37565b604082019050919050565b60006020820190508181036000830152613ec281613e86565b9050919050565b7f4e487b7100000000000000000000000000000000000000000000000000000000600052603260045260246000fd5b7f536b696c6c206f66666572656420726571756972656400000000000000000000600082015250565b6000613f2e601683612ef7565b9150613f3982613ef8565b602082019050919050565b60006020820190508181036000830152613f5d81613f21565b9050919050565b7f536b696c6c207265717565737465642072657175697265640000000000000000600082015250565b6000613f9a601883612ef7565b9150613fa582613f64565b602082019050919050565b60006020820190508181036000830152613fc981613f8d565b9050919050565b60008190508160005260206000209050919050565b60006020601f8301049050919050565b600082821b905092915050565b6000600883026140327fffffffffffffffffffffffffffffffffffffffffffffffffffffffffffffffff82613ff5565b61403c8683613ff5565b95508019841693508086168417925050509392505050565b6000819050919050565b600061407961407461406f84612f9e565b614054565b612f9e565b9050919050565b6000819050919050565b6140938361405e565b6140a761409f82614080565b848454614002565b825550505050565b600090565b6140bc6140af565b6140c781848461408a565b505050565b5b818110156140eb576140e06000826140b4565b6001810190506140cd565b5050565b601f8211156141305761410181613fd0565b61410a84613fe5565b81016020851015614119578190505b61412d61412585613fe5565b8301826140cc565b50505b505050565b600082821c905092915050565b600061415360001984600802614135565b1980831691505092915050565b600061416c8383614142565b9150826002028217905092915050565b61418582612eec565b67ffffffffffffffff81111561419e5761419d6130d3565b5b6141a88254613ad1565b6141b38282856140ef565b600060209050601f8311600181146141e657600084156141d4578287015190505b6141de8582614160565b865550614246565b601f1984166141f486613fd0565b60005b8281101561421c578489015182556001820191506020850194506020810190506141f7565b868310156142395784890151614235601f891682614142565b8355505b6001600288020188555050505b505050505050565b600060608201905061426360008301866134bd565b81810360208301526142758185612f43565b905081810360408301526142898184612f43565b9050949350505050565b600081905092915050565b60006142a982612eec565b6142b38185614293565b93506142c3818560208601612f08565b80840191505092915050565b60006142db828561429e565b91506142e7828461429e565b91508190509392505050565b7f496e76616c696420726174696e67000000000000000000000000000000000000600082015250565b6000614329600e83612ef7565b9150614334826142f3565b602082019050919050565b600060208201905081810360008301526143588161431c565b9050919050565b600061436a82612f9e565b915061437583612f9e565b925082820190508082111561438d5761438c613c92565b5b92915050565b600061439e82612f9e565b91506143a983612f9e565b92508282039050818111156143c1576143c0613c92565b5b92915050565b60006143d38385612ef7565b93506143e083858461317f565b6143e983612f32565b840190509392505050565b60006040820190506144096000830186613470565b818103602083015261441c8184866143c7565b9050949350505050565b7f4f776e61626c653a206e6577206f776e657220697320746865207a65726f206160008201527f6464726573730000000000000000000000000000000000000000000000000000602082015250565b6000614482602683612ef7565b915061448d82614426565b604082019050919050565b600060208201905081810360008301526144b181614475565b9050919050565b7f4f66666572206e6f742061637469766500000000000000000000000000000000600082015250565b60006144ee601083612ef7565b91506144f9826144b8565b602082019050919050565b6000602082019050818103600083015261451d816144e1565b9050919050565b7f50726f76696465722063616e6e6f7420636f6d706c657465206f776e206f666660008201527f6572000000000000000000000000000000000000000000000000000000000000602082015250565b6000614580602283612ef7565b915061458b82614524565b604082019050919050565b600060208201905081810360008301526145af81614573565b9050919050565b7f4552433732313a206d696e7420746f20746865207a65726f2061646472657373600082015250565b60006145ec602083612ef7565b91506145f7826145b6565b602082019050919050565b6000602082019050818103600083015261461b816145df565b9050919050565b7f4552433732313a20746f6b656e20616c7265616479206d696e74656400000000600082015250565b6000614658601c83612ef7565b915061466382614622565b602082019050919050565b600060208201905081810360008301526146878161464b565b9050919050565b7f45524337323155524953746f726167653a2055524920736574206f66206e6f6e60008201527f6578697374656e7420746f6b656e000000000000000000000000000000000000602082015250565b60006146ea602e83612ef7565b91506146f58261468e565b604082019050919050565b60006020820190508181036000830152614719816146dd565b9050919050565b7f4552433732313a207472616e736665722066726f6d20696e636f72726563742060008201527f6f776e6572000000000000000000000000000000000000000000000000000000602082015250565b600061477c602583612ef7565b915061478782614720565b604082019050919050565b600060208201905081810360008301526147ab8161476f565b9050919050565b7f4552433732313a207472616e7366657220746f20746865207a65726f2061646460008201527f7265737300000000000000000000000000000000000000000000000000000000602082015250565b600061480e602483612ef7565b9150614819826147b2565b604082019050919050565b6000602082019050818103600083015261483d81614801565b9050919050565b7f4f776e61626c653a2063616c6c6572206973206e6f7420746865206f776e6572600082015250565b600061487a602083612ef7565b915061488582614844565b602082019050919050565b600060208201905081810360008301526148a98161486d565b9050919050565b7f4552433732313a20617070726f766520746f2063616c6c657200000000000000600082015250565b60006148e6601983612ef7565b91506148f1826148b0565b602082019050919050565b60006020820190508181036000830152614915816148d9565b9050919050565b7f4552433732313a207472616e7366657220746f206e6f6e20455243373231526560008201527f63656976657220696d706c656d656e7465720000000000000000000000000000602082015250565b6000614978603283612ef7565b91506149838261491c565b604082019050919050565b600060208201905081810360008301526149a78161496b565b9050919050565b600081519050919050565b600082825260208201905092915050565b60006149d5826149ae565b6149df81856149b9565b93506149ef818560208601612f08565b6149f881612f32565b840191505092915050565b6000608082019050614a186000830187613033565b614a256020830186613033565b614a3260408301856134bd565b8181036060830152614a4481846149ca565b905095945050505050565b600081519050614a5e81612e5d565b92915050565b600060208284031215614a7a57614a79612e27565b5b6000614a8884828501614a4f565b91505092915050565b7f4e487b7100000000000000000000000000000000000000000000000000000000600052601260045260246000fdfea26469706673582212208d5300ef2f39cff0b104914a5aab85612b38944cad5f14c5c75c5c0329f2b2a464736f6c63430008140033",
  "linkReferences": {},
  "deployedLinkReferences": {}
}